:020000040000fa
:080000000002040000000000f2
:020000040000fa
:100008009a0200009a0200009a0200009a02000078
:100018009a0200009a0200009a0200009a02000068
:100028009a0200009a0200009a0200009a02000058
:100038009a0200009a0200009a0200009a02000048
:100048003e0600009a0200009a0200009a02000090
:100058009a0200009a0200009a0200009a02000028
:100068009a0200009a0200009a020000f2050000bd
:100078009a0200009a0200009a0200009a02000008
:100088009a0200009a0200009a0200009a020000f8
:100098009a0200009a0200009a0200009a020000e8
:1000a8009a0200009a0200009a0200009a020000d8
:1000b8009a0200009a0200009a0200009a020000c8
:1000c8009a0200009a0200009a0200009a020000b8
:1000d8009a0200009a0200009a0200009a020000a8
:1000e8009a0200009a0200009a0200009a02000098
:1000f8009a0200009a0200009a0200009a02000088
:100108009a0200009a0200009a0200009a02000077
:100118009a0200009a0200009a0200009a02000067
:100128009a0200009a0200009a0200009a02000057
:100138009a0200009a0200009a0200009a02000047
:100148009a0200009a0200009a0200009a02000037
:100158009a0200009a0200009a0200009a02000027
:100168009a0200009a0200009a0200009a02000017
:100178009a0200009a0200009a0200009a02000007
:100188009a0200009a0200009a0200009a020000f7
:100198009a0200009a0200009a0200009a020000e7
:1001a8009a0200009a0200009a0200009a020000d7
:1001b8009a0200009a0200009a0200009a020000c7
:1001c8009a0200009a0200009a0200009a020000b7
:1001d8009a0200009a0200009a0200009a020000a7
:1001e8009a0200009a0200009a0200009a02000097
:0801f8009a0200009a020000c7
:020000040000fa
:100208009a0200009a0200009a0200009a02000076
:100218009a0200009a0200009a0200009a02000066
:100228009a0200009a0200009a0200009a02000056
:100238009a0200009a0200009a0200009a02000046
:100248003e0600009a0200009a0200009a0200008e
:100258009a0200009a0200009a0200009a02000026
:100268009a0200009a0200009a020000f2050000bb
:100278009a0200009a0200009a0200009a02000006
:100288009a0200009a0200009a0200009a020000f6
:100298009a0200009a0200009a0200009a020000e6
:1002a8009a0200009a0200009a0200009a020000d6
:1002b8009a0200009a0200009a0200009a020000c6
:1002c8009a0200009a0200009a0200009a020000b6
:1002d8009a0200009a0200009a0200009a020000a6
:1002e8009a0200009a0200009a0200009a02000096
:1002f8009a0200009a0200009a0200009a02000086
:100308009a0200009a0200009a0200009a02000075
:100318009a0200009a0200009a0200009a02000065
:100328009a0200009a0200009a0200009a02000055
:100338009a0200009a0200009a0200009a02000045
:100348009a0200009a0200009a0200009a02000035
:100358009a0200009a0200009a0200009a02000025
:100368009a0200009a0200009a0200009a02000015
:100378009a0200009a0200009a0200009a02000005
:100388009a0200009a0200009a0200009a020000f5
:100398009a0200009a0200009a0200009a020000e5
:1003a8009a0200009a0200009a0200009a020000d5
:1003b8009a0200009a0200009a0200009a020000c5
:1003c8009a0200009a0200009a0200009a020000b5
:1003d8009a0200009a0200009a0200009a020000a5
:1003e8009a0200009a0200009a0200009a02000095
:0803f8009a0200009a020000c5
:020000040000fa
:100400002f8020000e7f22000e01880000000000d7
:10041000000020000000e000020032000001200087
:10042000200288000c00070000732000010020005b
:1004300011000700000020000000e0000200320070
:100440000000020000000000b205020000000000f1
:100450000040da000000fe004440a9000000200037
:100460000000e0000300320000002000a00188002e
:100470004440a80000000600910188008000780038
:100480000000eb0015003700e280400032a0b4000d
:100490009101ba00e280400032a0b4009102ba009b
:1004a000e280400032a0b4000002eb00472bde00e7
:1004b000f507b200602ce10004003a000059eb009f
:1004c0008301e900fdff3e00040037006128e100e0
:1004d000010032000082eb00040007001101ba00a5
:1004e0000200e000e8ff3a00000006003159ba00bf
:1004f0008301e9000c0032002159ba008301e900b0
:10050000080032000400e00003003a00e2804000ee
:1005100032a0b400f5ff370011d9ba008301e90019
:10052000faff3a008100e800e180400032a0b40008
:10053000000006000040da000000fe0003f0a20008
:10054000889fbe008a9fbe008c1f7800fa000700bb
:10055000010133006450e1004f0032006420e100eb
:100560005200320003826c0007003b000905d000f6
:100570000306d000820f54000c065d000200390013
:100580000200320089017800030678008582550058
:1005900004003d000003fd008103fd008502ea0028
:1005a0008b854200840f720002003b006000100047
:1005b000e08018006011b8000005eb007a28e10027
:1005c0000a00390006007800c75ddd00f707b200b9
:1005d000878075002d003700828171000a01780044
:1005e000610560008180d1000080d3008502e900b0
:1005f000f9ff3b00060440008784480002003b00ee
:1006000060041400e0841c000988a3000700320085
:100610008a81710082817100610164008904d100c6
:100620000884d3008b05e800170037000978a30081
:1006300013003a000b00e000130034008b05e900c2
:100640000804440089844c000a4474000978a3001b
:100650000d003a000b00e000070034008b05e900b4
:100660000804440089844c0001003a000b0020007b
:100670000978a300f7ff32000001eb000200370009
:10068000828171000a017800700007000cf0a70059
:1006900001f0a000b90037006420e10002003a0038
:1006a000838f6c00b90033000801be000200be0059
:1006b000b2003700889fbe008a9fbe008c1f780062
:1006c0009d000700a400330003866c006450e10025
:1006d0002e0032006420e100330032006150e1005e
:1006e0002f0032006120e100310032008585550085
:1006f000eb07b000090020000804200005003700c7
:100700000804440089844c000a00310006034300b9
:1007100087834b000001530081815b00f8ff3300a9
:100720000203be000800a0000804440089844c00b5
:10073000f6ff3900c639dd00830173000100320085
:10074000130020008904d1000884d3000998a30075
:10075000050032000800a7000300a0008904d100b2
:100760000884d3008b05e8008904d1000884d300f5
:100770000001eb000281d2003400070001f0a1006b
:100780000cf0a70001f0a0007c0037006420e1001d
:100790007e0032000801be000200be00f7ff3700f5
:1007a0006120e100790032006000b800f3ff3700fb
:1007b0000000200001f82700f0ff37000001be0014
:1007c000480007000470a70003f0a1006509b1000c
:1007d000160032000d0035006828e10006003500e3
:1007e000f0ff2f00f1ff27000300e00013003b00a3
:1007f0000100280000000500000040008180480042
:100800008502e900fcff3a0008003700f88f42003b
:1008100002003c008000eb00000005008100d100d8
:100820000080d3008502e800fcff3a000300e000ee
:1008300002003b0060001000e0801800000006008d
:100840004f89de0082017800870037008100200098
:10085000618055000b003d000b00200061fe2f0061
:100860000100e1001d00340082817100610164001b
:100870008904d1000884d3000000e800faff3a00a0
:10088000710020006100640003007000020060003d
:100890000900320061044400e0844c000988a5008e
:1008a000050032008b05e8006808e10002003a000c
:1008b0008904d1000884d300f20f20000258e1001f
:1008c00005003d00c75ddd00f907b20089807500b5
:1008d00008007800000006000bf827008b00780065
:1008e00000000500c70ade00f107b200f50fb200f4
:1008f00008003200e1cf4200020032000170a00087
:1009000024000500810f700001003200040805007a
:1009100044000500810f700002003a001400050039
:100920008502e9000000400081c04800fcff3b0058
:100930000170a000240005000004be00e9ff0700cc
:100940000003be000405be000200be00e5ff070074
:10095000844f7500000006000200be006450e100f4
:10096000050036006420e100020036000968a3009b
:1009700001003a000800be000160a0004f067800a8
:100980004f05be004f04be0000000600f0ff2f0020
:10099000f1ff2700f9ff3700889fbe008a9fbe0045
:1009a0008c1f7800e4ff0700ebff330003866c0028
:1009b0006450e100240032006420e100270032008e
:1009c0006150e100220032006120e100210032008c
:1009d0008b854200eb07b1000134b800003ab80043
:1009e0000804420089844a00013ab8000030b80087
:1009f0008880400009014a000400330000004000e4
:100a000081804800020149008b05e900c909dd0029
:100a1000830170000100320013002000c814de00c2
:100a20004814dd004709de001200b200c808de00ed
:100a30000884700085ff070001f0a1000cf0a700fa
:100a400001f0a000cdff37006120e100cfff3200b0
:100a50000801be000200be00f7ff37006150e10050
:100a6000fcff3a00c9ff3700881f780003047800b4
:100a70000300e00007003d0060001000e080180067
:100a800060011900e081190002003b0001f02d0017
:100a9000030037000400070008f0a70001f0a000e1
:100aa0004f04780000000600889fbe008a9fbe00a9
:100ab000008270000402710004827100260032007e
:100ac0000004be000200be006011b8006b092000e7
:100ad000950220000182cf000a0039000541b100d3
:100ae0000082cf00070039000541b1000982cf0024
:100af000040039000541b1000882cf00010039002f
:100b00000541b10005425200120032000a003b00cc
:100b100082817100610164008100d1000080d300f6
:100b20008984d3000884d3008b05e8000442e800e0
:100b3000f7ff3a00070037000804440089844c009e
:100b400000004800818048008b05e9000442e9006c
:100b5000f9ff3a003dff07004f05be004f04be00fd
:040b6000000006008b
:020000040000fa
:100b64000000fa009b000700b50007000002eb003c
:100b740004408800010037000000000004408000a9
:100b8400050020003600200007002000860f5200d8
:100b9400878f5a00f8ff3e0004600100030037000d
:100ba4000500370007003700090037004000200027
:100bb4009300070009003700500020009000070050
:100bc40006003700600020008d0007000300370096
:100bd400700020008a00070000000000e7ff3700d3
:100be400849fbe003400f80004002000a4018800a3
:100bf4000000fa008660a900551680000402200057
:100c040004826200e00f520017003a0004408000a2
:100c1400e00f520003003a00140020000440880052
:100c24001100370004408000e10f520003003a0035
:100c340024002000044088000b003700044080009a
:100c4400e20f520003003a00340020000440880000
:100c54000500370004408000e30f520002003a0010
:100c64000002eb00044088000080fa003400f90020
:100c74004f02be0000400600841f78003400f800d4
:100c840004002000a40188000000fa008500a900e7
:100c940004408000e00f520003003a0034002000ba
:100ca400044088001100370004408000e10f520026
:100cb40003003a000002eb00044088000b003700f8
:100cc40004408000e20f520003003a0014002000a8
:100cd400044088000500370004408000e30f520000
:100ce40002003a0024002000044088000080fa003a
:100cf4003400f9004f027800004006000600fa00b4
:100d0400200798002c0037002e029000cfa2de00ae
:100d14000400be00c9fe07000002be00020020005d
:100d240013b624000400be001aff07000002be0030
:100d340002002000032824000400be005cfe07001b
:100d44000002be000200200003f823000400be00dd
:100d5400f9fd07000002be000400be0096fe070075
:100d64000002be00048fbe001e02be0040aade00c8
:100d7400cfa2de0004027800740888001e02be00c0
:100d8400c022dd000400200040aade00cfa2de0065
:100d940004027800640888001061a80084088000b8
:100da4000440a1000450a000840888009500a80015
:100db4008500a90011e1a800551680000402200056
:100dc40004826200e00f5200cfff32000080fa007c
:100dd400000006000000fa0045168000f4ff200021
:100de40004826200441688006516800004002f0007
:100df40005027200641688000080fa0000000600f4
:100e04000200fa00000f78006516800004002f002d
:100e14000502720064168800350120001e8252000b
:100e240015002000042add00840278006416800086
:100e340004826a00641688000080fa00000006003c
:100e44000000fa00c8a2a8008660a9009660a80065
:0c0e54006360a8000080fa0000000600a7
:020000040000fa
:100e60000008000002000000000000000000000078
:020000040000fa
:020000040001f9
:0457f800ad7b000085
:020000040000fa
:020000040001f9
:0457fc003f3f00002b
:00000001FF
